:020000040800F2
:10000000680A00209D010008D52F00087529000806
:10001000D12F0008E90E0008513C00080000000044
:10002000000000000000000000000000D92F0008C0
:10003000ED0E000800000000D72F0008DB2F00089D
:10004000B7010008B7010008B7010008B7010008B0
:10005000B7010008B7010008B7010008B7010008A0
:10006000B7010008B7010008B7010008B701000890
:10007000B7010008B7010008B7010008B701000880
:10008000B7010008B7010008B7010008B701000870
:10009000B7010008B7010008B7010008B701000860
:1000A000B7010008B7010008B7010008B701000850
:1000B000B7010008B7010008B7010008B701000840
:1000C000B7010008B7010008B7010008B701000830
:1000D000B7010008E53B0008B7010008B7010008B8
:1000E000B7010008B7010008B7010008B701000810
:1000F000B7010008B7010008B7010008B701000800
:10010000B7010008B7010008B7010008B7010008EF
:10011000B7010008B7010008B7010008F93000086E
:10012000B7010008B7010008B7010008B7010008CF
:10013000B7010008B7010008B7010008B7010008BF
:10014000B7010008B7010008B7010008B7010008AF
:10015000B7010008B7010008B7010008B70100089F
:10016000B7010008B7010008B7010008B70100088F
:10017000B7010008B7010008B7010008000000003F
:10018000B7010008B7010008DFF80CD000F006FC4A
:100190000048004705610008680A002006488047BB
:1001A00006480047FEE7FEE7FEE7FEE7FEE7FEE75C
:1001B000FEE7FEE7FEE7FEE795300008890100084C
:1001C00030B50B46014600202022012409E021FA27
:1001D00002F59D4205D303FA02F5491B04FA02F524
:1001E0002844151EA2F10102F1DC30BD2DE9F05FBB
:1001F0000546002092469B46884606468146402496
:100200001BE0284641464746224600F0B4F95346D3
:100210005A46C01A914110D311461846224600F0A2
:100220009BF92D1A67EB01084F4622460120002159
:1002300000F092F917EB00094E41201EA4F10104D1
:10024000DFDC484631462A464346BDE8F09F10B5FC
:10025000431A934209D28318881803E010F8011D4D
:1002600003F8011D521EF9D210BD40EA01039B079D
:1002700003D009E008C9121F08C0042AFAD203E01B
:1002800011F8013B00F8013B521EF9D210BDD2B269
:1002900001E000F8012B491EFBD270470022F6E76F
:1002A00010B513460A4604461946FFF7F0FF2046EC
:1002B00010BD421C10F8011B0029FBD1801A7047A9
:1002C00010B5002200E0521C835C8C5CA34201D17B
:1002D000002BF8D1D8B2E1B2401A10BDCBB203E086
:1002E0000178994203D0401C521EF9D20020704779
:1002F000034611F8012B00F8012B002AF9D118460A
:10030000704700F097B92DE9FE4F81EA030404F02D
:10031000004421F0004100944FF0000B23F0004313
:1003200050EA01045ED052EA03045BD0C3F30A54DE
:10033000C1F30A552C44A4F2F3340194A0FB0254F7
:10034000C1F3130141F48011C3F3130343F4801389
:1003500001FB024400FB034E840A970A44EA8154DD
:1003600047EA8357A4FB076802958D0A05FB0785BA
:100370004FEA932C04FB0C542705029D4FEA0658C4
:1003800047EA1637B5EB08056EEB070C870E920EA1
:1003900047EA811742EA8312A7FB0201B6EB0B0181
:1003A00064EB00042B0D43EA0C335E1844EB1C5045
:1003B000DA465146E7FB0201C5F313044FEA0B335B
:1003C00043EA14534FEA0432019C43EA0603A4F1C2
:1003D0000C040294009CCDE900B400F0B9F903B01C
:1003E000BDE8F08F00200146F9E72DE9F04D81EAE4
:1003F000030404F0004B21F0004514464FF0000ABE
:1004000023F0004150EA050220D054EA01021DD039
:10041000C5F30A570246C5F31303C1F31300C1F332
:100420000A5640F4801543F48013A7EB0608101B0E
:10043000D64608F2FD3873EB050002D308F1010837
:1004400001E092185B41B8F1000F03DA0020014689
:10045000BDE8F08D00204FF48011064684460EE082
:10046000171B73EB050705D3121B63EB050306434C
:100470004CEA010C49084FEA300092185B4150EAFF
:100480000107EDD152EA030012D082EA040083EAA8
:100490000501084305D0101BAB4106D20122002301
:1004A00006E000224FF0004302E06FF0010253101B
:1004B0001AEB06004CEB085110EB0A0041EB0B0164
:1004C000BDE8F04D00F035B900F0004230F00040DA
:1004D0000AD0C10D01F56071C0F3160042EA015166
:1004E000C2084007114370470020014670470000D2
:1004F00030B5041E71F1000404DB4FF000444042AB
:1005000064EB0101141E73F1000405DB1C464FF07F
:100510000043524263EB04038B4208BF824230BD6A
:1005200001F0004330B421F0004150EA010206D04E
:100530000A0DA2F56072C1F31301002A02DC30BC7F
:1005400000207047440F44EAC104C100E01830BCE9
:1005500000EBC25000F0B6B8202A04DB203A00FAC3
:1005600002F1002070479140C2F1200320FA03F30A
:10057000194390407047202A04DB203A21FA02F008
:100580000021704721FA02F3D040C2F120029140CD
:1005900008431946704700000FB4002300B589B026
:1005A0000CA900910B996FF00042CB601E4B069393
:1005B0001E4B07930423CDE901321D4A08920246DF
:1005C0006B46002000F09CFA09B05DF814FB70B592
:1005D00086B006464FF0FF300091CDE901010020C2
:1005E00015460C4604903246694604A8FFF7D4FF2E
:1005F00002460498211825B108B1084600E02046BB
:100600002860049800280DD0002A02DD0098884256
:1006100008D0081B0094CDE901043246694604A8BD
:10062000FFF7BAFF06B070BD390D0008570D00087E
:10063000ED0900082DE9F04791460E468046044634
:10064000002514F8017B2FB100F0CCF90068C05DE3
:10065000C007F6D12B2F02D02D2F1ED0641E4A4684
:100660003146204600F088FB26B13268A24201D113
:10067000C6F800806A054FF0020418D50023D0EBBD
:10068000030563EB01025D1B934109DB0023D0EB03
:10069000030063EB0101BDE8F08745F48065DEE708
:1006A00003F05EFB046000204FF00041F3E7021E00
:1006B00071F10002EFDA03F053FB04604FF0FF30FA
:1006C0004108E8E70029A8BF7047401C490008BF5F
:1006D00020F00100704710B4B0FA80FC00FA0CF072
:1006E00050EA010404BF10BC704749B1CCF12004AA
:1006F00021FA04F411FA0CF118BF01212143084337
:10070000A3EB0C01CB1D4FEA00614FEA102042BF62
:10071000002010BC704700EBC35010440029A4BF58
:1007200010BC7047401C490008BF20F0010010BCFD
:10073000704710B5141E73F1000408DA401C41F133
:10074000000192185B411A4301D120F0010010BD55
:100750002DE9F04D92469B4611B1B1FA81F202E0CB
:10076000B0FA80F220329046FFF7F6FE04460F46BC
:1007700040EA0A0041EA0B0153465A46084313D0A7
:10078000114653EA010019D0C8F140025046FFF764
:10079000F2FE05460E46504659464246FFF7DCFE3D
:1007A000084305D0012004E020463946BDE8F08D1D
:1007B0000020054346EAE0762C4337430A98630558
:1007C000E40AA0EB08000022FD0A44EA47540A307C
:1007D00002D500200146E9E7010510196941DDE96C
:1007E000084500196941BDE8F04DA2E72DE9FE4F2B
:1007F000804681EA0300C00F0C46009021F00041C2
:1008000023F00045B8EB0200A94105D2404621463D
:1008100090461C460B46024623F00040104347D04A
:10082000270DC7F30A00C3F30A510290401A019042
:1008300040286BDAC3F3130040F4801B0098924603
:1008400020B10023D2EB030A63EB0B0B019859464E
:10085000C0F140025046FFF77FFE06460D46504667
:100860005946019A00F0ACF810EB080061410024F1
:1008700087EA115284EAE7731A4340D0009A62B3C0
:10088000019A012A4FEA075215DC001B61EB0201B5
:100890004FF0004202EA0752CDE90042001C41F548
:1008A000801132462B46FFF753FF03B0BDE8F08FAF
:1008B00040462146F9E7001B61EB0201001C41F5AF
:1008C000801300185B412018A2F5001747EB0301C5
:1008D00040EAD570B6196D4111E06D084FEA360651
:1008E00045EAC0754FEA0752001B61EB0201001C8C
:1008F00041F5801149084FEA300000195141324654
:100900002B4603B0BDE8F04FFFF713BF009801225C
:1009100040000023D0EB020263EBE0730098214615
:100920004FEAE074B8EB000061EB0401E9E783F003
:1009300000435BE781F0004158E7C1F30A52C1F37D
:10094000130140F2FF3341F480119A4202DA002091
:100950000146704740F233439A42A2F2334202DC2E
:100960005242FFF708BEFFF7F7BD000030B5041E86
:1009700071F1000404DB4FF00044404264EB0101DC
:10098000141E73F1000405DB1C464FF00043524275
:1009900063EB0403994208BF904230BD064C074DFB
:1009A00006E0E06840F0010394E80700984710343F
:1009B000AC42F6D3FFF7ECFBC86E0008E86E000807
:1009C000202A06DBCB17203A41FA02F043EAE07313
:1009D00006E041FA02F3D040C2F120029140084300
:1009E0001946704700487047C46E000810B50446A9
:1009F000FFF7F8FF0068005D00F0010010BD000087
:100A00002DE9FF4F087881B09946FF2805D0491C91
:100A10002D2804D00024002308E000230BE001244B
:100A2000F9E703EB830300EB4303491C0878FF2835
:100A3000F7D104B15B4200200090147801462D2CC0
:100A400001D02B2C04D1521C2D2C12D00024009448
:100A500000251678FF2E0ED00A24A0FB04C801FB47
:100A60000481002700FB0711521C16EB0C006941A2
:100A7000EFE70124EBE7994450EA01020ED000248D
:100A8000AA4D2646DFF8A88200F022FA82468B465D
:100A9000B9F1000009DAC9F100071BE00198002153
:100AA000C0E9001105B0BDE8F08F074612E0F80775
:100AB00007D022462B4630464146FFF724FC064627
:100AC000884622462B4610461946FFF71CFC044672
:100AD0000D467F10002FEAD1B9F1000F3246434690
:100AE0005046594602DAFFF780FC01E0FFF70BFCA5
:100AF000009A0AB181F00041019AC2E90001D1E7F0
:100B00002DE9FF4F1F468DB0D7E901464FF0FF3862
:100B10002E2045464FF000090B90B9696D1C0E98C8
:100B20008847396A824688470028F6D1BAF1FF3FE4
:100B30000AD024F4D064002E11DDBAF12B0F08D0B6
:100B4000BAF12D0F0BD102E0404611B0ABE744F4EF
:100B50008064B9696D1C0E9888478246761E694686
:100B6000600501D52D2000E02B208DF8000001F15B
:100B7000010B0DF1200809E0B9696D1C0E9888473A
:100B800082460F9844F40074761E0560002E02DD44
:100B9000BAF1300FF0D00B998A453ED144F0800471
:100BA00006E00F99681CA9F1010944F4007408607B
:100BB000B9696D1C761E0E98884782463028F0D0A1
:100BC0002BE00B998A4505D1200603D444F080041C
:100BD000761E18E0504603F07BFE08B30DF11301BA
:100BE000761E44F400748B4508D2AAF130000BF84D
:100BF000010B200607D5A9F1010003E0200602D46D
:100C000009F101008146A00502D50F99681C086012
:100C1000B9696D1C0E9888478246002ED1DC53E0DE
:100C2000002E51DDBAF1650F02D0BAF1450F4BD15C
:100C3000A00549D5B9696D1C24F44074761E0E9840
:100C400088478246002E0CDD2B2804D0BAF12D0FE8
:100C500007D144F48074B9696D1C0E9888478246A8
:100C6000761EE00501D52D2100E02B2108F8011B9F
:100C7000CDF82C8021E00DF12901761E44F400749A
:100C800088450CD2AAF1300010F0FF0088F800006F
:100C900002D10B99884509D908F1010806E0E00561
:100CA00001D5244801E042F20F708146B9696D1CFC
:100CB0000E98884782460F980560002E04DD504646
:100CC00003F006FE0028D6D1F9690E988847FF2068
:100CD0008BF8000088F800000020069007904B4633
:100CE0006A4608A906A8FFF78BFEA00502D46FF09C
:100CF00001002AE714F0240F0AD0E00714D1DDE93F
:100D000006123868031D3B600068C0E900120BE062
:100D1000DDE90601FFF704FC0146E00704D138686D
:100D2000021D3A600068016028460EE7000024407A
:100D30000000F03FF1D8FFFF426842B1016811F8AE
:100D4000013B23B1521EC0E9001218467047012131
:100D5000C160881E704742685AB1C368016843B9D0
:100D600083688B4205D0491E521CC0E90012002046
:100D700070474FF0FF3070472DE9F74F4FF00009F3
:100D8000009C1546CA4614F8010B302801D0ADB1BD
:100D900015E014F8010B4FF00109782803D058280A
:100DA00001D04DB10BE00DB1102D08D14FF000096D
:100DB000102514F8010B02E0082500E00A250027A1
:100DC0003E46B8464FEAE57B16E0A5FB07230BFB42
:100DD000073105FB080005FB0616030CD71846F182
:100DE00000061FFA80F8381E4FF0010976F58030B2
:100DF00000D3CA4614F8010B294600F05BF800281E
:100E0000E3DA019838B1B9F1000F01D0641E00E0B7
:100E1000009C01980460BAF1000F08D002F0A0FF16
:100E200002210160C81E014603B0BDE8F08F310405
:100E300041EA174148EA0740F6E70EB5C10F80EADC
:100E4000E0700844CA07002140F233438DE80E00E9
:100E50000A460B46FFF77CFC03B000BD0EB540F21E
:100E6000334102910021CDE900110A460B46FFF7FC
:100E70006FFC03B000BD70B5C1F30A5201F000452C
:100E80000024C1F3130140F2FF3341F480119A4270
:100E900001DA002070BD40F233439A42A2F233429D
:100EA00003DC5242FFF767FB00E090402C43F1D097
:100EB000404270BD3A2800D2303820F02002412A4A
:100EC00001D3A2F13700884201D34FF0FF307047C1
:100ED0000EB540F2334202920022CDE900221346C1
:100EE000FFF736FC03B000BD00BFFEE77047704758
:100EF000014691F83500022803D080204865012082
:100F00007047052081F835000868006820F001006E
:100F10000A6810600020F3E770B5044600F016F987
:100F200006462546681C10B104480078054400BFF9
:100F300000F00CF9801BA842FAD370BD28000020F5
:100F4000F8B502460B460025002400200021DCE015
:100F5000012606FA01F51E6806EA0504AC4273D1C3
:100F60005E68012E08D05E68022E05D05E68112EE4
:100F700002D05E68122E13D190684F000326BE4047
:100F8000B0434F00DE68BE40304390605068012699
:100F90008E40B0431E79C6F300168E403043506039
:100FA000D0684F000326BE40B0434F009E68BE404D
:100FB0003043D0605E68022E02D05E68122E13D1DC
:100FC000CF0802F1200656F827004E07F70E0F262D
:100FD000BE40B0434F07FF0E1E69BE403043CF08EE
:100FE00002F1200646F8270010684F000326BE4095
:100FF000B0431E7906F003064F00BE403043106038
:101000005E6806F08056B6F1805F7DD100BF002695
:101010000096404E366846F480463E4F3E603E465F
:10102000366806F48046009600BF00BF3A4E8F082F
:1010300056F827008E07370F0F26BE40B043374EB5
:10104000B24202D1002624E05EE0354EB24201D128
:1010500001261EE0334EB24201D1022619E0324E83
:10106000B24201D1032614E0304EB24201D104262F
:101070000FE02F4EB24201D105260AE02D4EB242BA
:1010800001D1062605E02C4EB24201D1072600E030
:1010900008268F073F0FBE4030431F4E8F0846F88B
:1010A0002700264E3068A0435E6806F48036B6F509
:1010B000803F00D12043214E3060361D3068A04370
:1010C0005E6806F40036B6F5003F00D120431B4EA3
:1010D000361D3060361D3068A0435E6806F4801609
:1010E000B6F5801F00D12043144E08363060361DFF
:1010F0003068A0435E6806F40016B6F5001F00D104
:1011000020430E4E0C363060491C1029FFF420AFEE
:10111000F8BD000044380240083801400000024099
:101120000004024000080240000C0240001002408F
:101130000014024000180240001C0240003C014024
:101140000AB1816101E00B048361704701480068C6
:101150007047000020000020034800680349097818
:101160000844014908607047200000202800002042
:1011700010B50D48006840F400700B49086008463F
:10118000006840F4806008600846006840F48070A1
:101190000860032000F0A2F8002000F007F800F03B
:1011A0002BF8002010BD0000003C024070B5044642
:1011B0000E4800784FF47A71B1FBF0F00C490968E1
:1011C000B1FBF0F5284600F0C9FC08B1012070BD64
:1011D000102C07D200222146501E00F041F805488D
:1011E000046001E00120F2E70020F0E72800002081
:1011F0002C0000202400002008B500BF0020009033
:101200000E48006840F480400C49086008460068B9
:1012100000F48040009000BF00BF00BF002000909D
:10122000081F006840F08050091F086008460068E9
:1012300000F08050009000BF00BF08BD443802405D
:1012400001460846002809DB00F01F0301229A40EE
:1012500043099B0003F1E023C3F8002100BF70475E
:101260002DE9F05F80460D461646002702F05CFD32
:10127000074639462A46334601F00700C0F1070AFF
:10128000BAF1040F02D94FF0040A01E0C0F1070AD5
:10129000D14600F1040ABAF1070F02D24FF0000A5A
:1012A00001E0A0F1030AD4464FF0010A0AFA09FA54
:1012B000AAF1010A0AEA020A0AFA0CFA4FF0010B33
:1012C0000BFA0CFBABF1010B0BEA030B4AEA0B0424
:1012D0002146404602F030FDBDE8F09F00BF00F01F
:1012E0000702064B19684FF6FF031940044B0B43E6
:1012F00043EA0221014B196000BF70470CED00E08A
:101300000000FA0570B504460D460CB9012070BD09
:101310005848006800F00F00A84209D255490D70E6
:101320000846006800F00F00A84201D00120EEE757
:10133000207800F0020002281DD1207800F004007F
:10134000042805D14C48006840F4E0504A49086040
:10135000207800F00800082805D14748006840F4CC
:101360006040454908604448006820F0F000A168EA
:10137000084341490860207800F00100A8B3606884
:10138000012807D13C4808380068C0F34040B8B98C
:101390000120BCE76068022802D06068032807D1FA
:1013A000354808380068C0F3406048B90120AEE70E
:1013B000314808380068C0F3400008B90120A6E7AA
:1013C0002D48006820F00300616808432A4908603E
:1013D000FFF7BCFE064609E0FFF7B8FE801B41F2AE
:1013E0008831884202D9032091E707E0224800684B
:1013F00000F00C006168B0EB810FEDD11D48006872
:1014000000F00F00A84209D91A490D70084600687B
:1014100000F00F00A84201D0012078E7207800F00A
:101420000400042807D11448006820F4E050E16863
:10143000084311490860207800F00800082808D106
:101440000D48006820F46040216940EAC1000A4963
:10145000086000F03FF808490968C1F30311074A22
:10146000515CC8400649086006480068FFF79EFEC8
:1014700000204CE7003C024008380240046D0008A0
:101480002C00002024000020014800687047000064
:101490002C00002000B5FFF7F7FF04490968C1F3ED
:1014A0008221034A515CC84000BD00000838024058
:1014B000146D000800B5FFF7E7FF04490968C1F3A0
:1014C0004231034A515CC84000BD00000838024068
:1014D000146D00082DE9F047002400250026A146E0
:1014E0002548006800F00C0020B1042805D0082829
:1014F0003AD105E0DFF8849039E0DFF8849036E0F7
:101500001D48001F006800F03F041B48001F0068D2
:1015100000F4800078B11A481749091F0968C1F31F
:101520008811A0FB01700146224600233846FEF7D1
:101530005DFE05460EE011480F49091F0968C1F319
:101540008811A0FB01700146224600233846FEF7B1
:101550004DFE05460848001F0068C0F30140401CCE
:101560004600B5FBF6F902E0DFF8109000BF00BFBF
:101570004846BDE8F0870000083802400024F40027
:1015800040787D01F8B504460CB90120F8BD2078FB
:1015900000F00100002874D0F948006800F00C0049
:1015A00004280DD0F648006800F00C00082813D17C
:1015B000F348001F006800F48000B0F5800F0BD1E5
:1015C000EF4808380068C0F34040002859D06068F0
:1015D000002856D10120D9E700BF6068B0F5803FF0
:1015E00008D1E7480838006840F48030E4490839F9
:1015F00008601EE06068B0F5A02F0DD1E048083803
:10160000006840F48020DE49083908600846006818
:1016100040F4803008600CE0D9480838006820F4B5
:101620008030D749083908600846006820F48020D7
:10163000086000BF606890B1FFF788FD054606E0CE
:10164000FFF784FD401B642801D903209EE7CC48A6
:1016500008380068C0F340400028F1D011E0FFF7DF
:1016600075FD054606E0FFF771FD401B642801D9B2
:1016700003208BE7C24808380068C0F340400028C8
:10168000F1D1207800F0020002285FD1BC48006848
:1016900000F00C0058B1BA48006800F00C000828AF
:1016A0001CD1B748001F006800F48000B0B9B448EE
:1016B00008380068C0F3400020B1E068012801D07C
:1016C000012063E7AE480838006820F0F80021697F
:1016D00040EAC100AA490839086037E0E06800B371
:1016E0000120A8490860FFF731FD054606E0FFF735
:1016F0002DFD401B022801D9032047E7A0480838E8
:101700000068C0F340000028F1D09D480838006808
:1017100020F0F800216940EAC100994908390860C1
:1017200014E0002097490860FFF710FD054606E029
:10173000FFF70CFD401B022801D9032026E7904843
:1017400008380068C0F340000028F1D1207800F08C
:10175000080008282CD16069A8B101208A490860D6
:10176000FFF7F4FC054606E0FFF7F0FC401B0228FB
:1017700001D903200AE782486C300068C0F34000BA
:101780000028F1D014E000207F490860FFF7DEFC5C
:10179000054606E0FFF7DAFC401B022801D90320CA
:1017A000F4E677486C300068C0F340000028F1D1BF
:1017B000207800F00400042870D1002770483830E9
:1017C000006800F0805090B900BF002000906C4885
:1017D0003830006840F08050694938310860084668
:1017E000006800F08050009000BF00BF01276748EC
:1017F000006800F48070B0B96448006840F48070FC
:1018000062490860FFF7A2FC054606E0FFF79EFC70
:10181000401B022801D90320B8E65C48006800F4A8
:1018200080700028F2D000BFA068012808D1544879
:101830006830006840F001005149683108601DE0DF
:10184000A06805280DD14E486830006840F00400BB
:101850004B49683108600846006840F001000860A4
:101860000CE047486830006820F0010044496831C6
:1018700008600846006820F00400086000BFA06807
:10188000A8B1FFF763FC054609E0FFF75FFC401BCA
:1018900041F28831884202D9032077E626E03848B1
:1018A00068300068C0F340000028EED013E0FFF776
:1018B0004DFC054608E0FFF749FC401B41F288312A
:1018C000884201D9032061E62D4868300068C0F3E2
:1018D00040000028EFD1012F07D129483830006897
:1018E00020F0805026493831086000BFA0690028E8
:1018F00045D02348006800F00C0008285DD0A0699E
:10190000022845D100201F490866FFF71FFC054645
:1019100006E0FFF71BFC401B022801D9032035E637
:10192000174808380068C0F340600028F1D1D4E9B6
:1019300007010843616A40EA81110122A06AC2EBF3
:10194000500041EA00412C20005D41EA00600C4952
:10195000091F086001200B490866FFF7F7FB0546E1
:1019600006E0FFF7F3FB401B022801D903200DE638
:10197000034808380068C0F340600028F1D03FE019
:101980000838024000004742800E47420070004085
:1019900000201C490866FFF7D9FB054606E0FFF763
:1019A000D5FB401B022801D90320EFE5164800684B
:1019B000C0F340600028F2D122E0A069012800D1E4
:1019C000E4E511480830066806F48001E0698142C8
:1019D00014D106F03F01206A81420FD147F6C07052
:1019E0003040616A884209D106F44031A06A8142E0
:1019F00004D106F07061E06A814201D00120C5E5A2
:101A00000020C3E5000047420038024010B50446FC
:101A10000CB9012010BD606A00B900BF0021A162AD
:101A200094F8510028B9002084F85000204600F0B6
:101A300033F8022084F851002068006820F040004C
:101A400021680860D4E901010843E168084321697D
:101A5000084361690843218B01F400710843E1697F
:101A60000843216A0843A16A0843216808600421E9
:101A7000A06901EA1040616A084321684860206853
:101A8000C06920F400602168C86100206065012001
:101A900084F851000020BDE710B586B0044614213B
:101AA00001A8FEF7FBFB2949206888424CD100BF02
:101AB000002000902648006840F4805024490860C7
:101AC0000846006800F48050009000BF00BF00BFCF
:101AD000002000901E481438006840F001001C49A6
:101AE000143908600846006800F00100009000BF4B
:101AF00000BF00BF002000900846006840F00200D0
:101B000008600846006800F00200009000BF00BFB7
:101B100020200190022002900020039003200490D6
:101B20000520059001A90B48FFF70AFA3020019023
:101B300002200290002003900320049005200590CD
:101B400001A90548FFF7FCF906B010BD00300140BF
:101B500044380240000002400004024070B50446D0
:101B60002546681EB0F1807F01D301200FE0681E7A
:101B70004FF0E02148610F214FF0FF3002F0DCF818
:101B800000204FF0E021886107200861002070BD2F
:101B90007047704710B50346002200BF93F83C0021
:101BA000012801D1022010BD012083F83C0000BFB4
:101BB00022F0FF00CC6840EA040222F440708C68F6
:101BC00040EA040222F480604C6840EA040222F4F5
:101BD00000600C6840EA040222F480500C6940EA7C
:101BE000040222F400504C6940EA040222F48040CE
:101BF000CC6940EA04021868426400BF002083F800
:101C00003C0000BF00BFCEE730B502460B4600BF28
:101C100092F83C00012801D1022030BD012082F859
:101C20003C0000BF022082F83D0010684468106844
:101C3000816824F070041868044310684460184DEB
:101C40001068A8421BD01068B0F1804F17D0154D16
:101C50001068A84213D0144D1068A8420FD0134D3D
:101C60001068A8420BD0124D1068A84207D0114D41
:101C70001068A84203D0104D1068A84205D121F089
:101C800080015868014310688160012082F83D009E
:101C900000BF002082F83C0000BF00BFBDE700008D
:101CA000000001400004004000080040000C00401B
:101CB00000040140004001400018004010B50446F7
:101CC0000CB9012010BD94F83D0028B9002084F81B
:101CD0003C00204600F00CF8022084F83D00211D55
:101CE000206801F045FB012084F83D000020E9E771
:101CF00038B504462F49206888420FD100BF002024
:101D000000902D48006840F001002B49086008460B
:101D1000006800F00100009000BF49E02068B0F1C9
:101D2000804F11D100BF002000902348001F0068A1
:101D300040F001002049091F08600846006800F0D3
:101D40000100009000BF33E01C492068884211D197
:101D500000BF002000901848001F006840F01000ED
:101D60001549091F08600846006800F0100000903F
:101D700000BF1DE012492068884219D100BF002031
:101D800000900D48001F006840F020000A49091F1C
:101D900008600846006800F02000009000BF00BF07
:101DA000002211463720FFF75BFA3720FFF748FA89
:101DB00038BD0000000001404438024000100040DF
:101DC000001400402DE9F04104460D4600BF94F890
:101DD0003C00012802D10220BDE8F081012084F8F6
:101DE0003C0000BF022084F83D002068866826F091
:101DF000770626F47F46206886602868502833D00E
:101E00000CDC202850D004DC00284BD0102851D105
:101E100049E0302849D040284CD139E060282DD005
:101E2000702807D0B0F5805F03D0B0F5005F41D1D6
:101E30000DE040E0D5E902136A68206801F015FB67
:101E40002068866846F077062068866033E0D5E92A
:101E500002136A68206801F008FB2068806840F47B
:101E600080402168886026E0EA686968206801F09F
:101E7000EDFB5021206801F003FB1CE0EA68696873
:101E8000206801F0F6FB6021206801F0F9FA12E009
:101E9000EA686968206801F0D9FB4021206801F0F8
:101EA000EFFA08E000BF00BF00BF2968206801F01A
:101EB000E7FA00E000BF00BF012084F83D0000BF4A
:101EC000002084F83C0000BF00BF85E72DE9F04109
:101ED00004460D4614B90120BDE8F08194F83D0098
:101EE00028B9002084F83C00204600F047F8022082
:101EF00084F83D002068806844F207018843216827
:101F00008860211D206801F033FA2068D0F808802D
:101F1000206886692068076A286840EA080840F255
:101F200003308643A969A86840EA0120064340F6C9
:101F30000C4086434FF2F0008643E969E86840EAC6
:101F40000120064328690001296A40EA013006435E
:101F500027F0220727F088076969686840EA0110BE
:101F600007432068C0F808802068866120680762FF
:101F7000012084F83D000020AEE7000010B586B0D7
:101F80000446142101A8FEF789F96A4920688842AD
:101F90002FD100BF002000906748006840F0020089
:101FA000654908600846006800F00200009000BF24
:101FB00000BF00BF002000905F481038006840F06C
:101FC00001005D49103908600846006800F0010012
:101FD000009000BF00BFC0200190022002900020AE
:101FE000039004900220059001A95448FEF7A8FF31
:101FF0009DE053492068884230D100BF0020009006
:102000004D48006840F004004B49086008460068ED
:1020100000F00400009000BF00BF00BF002000904F
:1020200045481038006840F00800434910390860FE
:102030000846006800F00800009000BF00BF4FF4A1
:102040004050019002200290002003900490022052
:10205000059001A93B48FEF773FF68E03A49206804
:1020600088422FD100BF002000903348006840F024
:102070000800314908600846006800F00800009038
:1020800000BF00BF00BF002000902B481038006840
:1020900040F001002849103908600846006800F047
:1020A0000100009000BF00BF0320019002200290B9
:1020B0000020039004900220059001A91F48FEF71C
:1020C0003FFF34E021492068884230D100BF002022
:1020D00000901948001D006840F002001649091DD3
:1020E00008600846006800F00200009000BF00BFD2
:1020F00000BF0020009010481038006840F0040035
:102100000D49103908600846006800F0040000908E
:1021100000BF00BFC0200190022002900020039069
:1021200004900320059001A90948FEF709FF06B0B5
:1021300010BD000000040040403802400000024092
:1021400000080040000C0240000C00400004014068
:102150000008024030B504460D4615B1042D0CD1DF
:1021600005E001220021206801F06EF910E0012253
:102170000421206801F068F90AE0012200212068AA
:1021800001F062F901220421206801F05DF900BF2D
:1021900000BF2068006840F001002168086000204E
:1021A00030BD704710B5044620680069C0F3400098
:1021B000D8B12068C068C0F34000B0B16FF0020031
:1021C00021680861012020772068806900F0030001
:1021D00018B12046FFF7E5FF05E0204600F0E0F8E3
:1021E000204600F07DF90020207720680069C0F3C8
:1021F0008000D8B12068C068C0F38000B0B16FF033
:10220000040021680861022020772068806900F4BA
:10221000407018B12046FFF7C4FF05E0204600F0EB
:10222000BFF8204600F05CF90020207720680069A4
:10223000C0F3C000D8B12068C068C0F3C000B0B11E
:102240006FF0080021680861042020772068C069C9
:1022500000F0030018B12046FFF7A3FF05E0204679
:1022600000F09EF8204600F03BF90020207720681F
:102270000069C0F30010D8B12068C068C0F3001036
:10228000B0B16FF010002168086108202077206845
:10229000C06900F4407018B12046FFF782FF05E0E6
:1022A000204600F07DF8204600F01AF90020207743
:1022B0002068006900F0010058B12068C06800F093
:1022C000010030B16FF0010021680861204600F084
:1022D00035F920680069C0F3C01058B12068C068A3
:1022E000C0F3C01030B16FF0800021680861204653
:1022F000FFF74EFC20680069C0F3801058B12068D9
:10230000C068C0F3801030B16FF0400021680861F0
:10231000204600F014F920680069C0F3401058B15D
:102320002068C068C0F3401030B16FF02000216811
:1023300008612046FFF72DFC10BD000010B586B0E7
:102340000446142101A8FDF7A9FF1249206888421C
:102350001DD100BF002000900F48006840F0100021
:102360000D4908600846006800F01000009000BFAA
:1023700000BF4FF4D440019002200290002003904F
:1023800004900120059001A90448FEF7D9FD06B08C
:1023900010BD000000000140303802400010024033
:1023A000704770B504460D46164600BF94F83C00D1
:1023B000012801D1022070BD012084F83C0000BF3B
:1023C000022084F83D0036B1042E1BD0082E31D0F7
:1023D0000C2E5ED145E02946206801F05BF82068AC
:1023E000806940F00800216888612068806920F0D9
:1023F0000400216888612068806929690843216890
:10240000886147E02946206801F07CF820688069EF
:1024100040F40060216888612068806920F4806051
:102420002168886120688069296940EA0120216863
:1024300088612FE02946206801F0A2F82068C06971
:1024400040F008002168C8612068C06920F00400DD
:102450002168C8612068C069296908432168C8618A
:1024600018E02946206801F0C7F82068C06940F4E8
:1024700000602168C8612068C06920F4806021681C
:10248000C8612068C069296940EA01202168C861E3
:1024900000E000BF00BF012084F83D0000BF002025
:1024A00084F83C0000BF00BF85E710B504460CB9B6
:1024B000012010BD94F83D0028B9002084F83C00AC
:1024C000204600F00CF8022084F83D00211D206811
:1024D00000F04EFF012084F83D000020E9E770473E
:1024E0007047000070B504460E4601223146206850
:1024F00000F0AAFF0F492068884203D00E492068E7
:10250000884201D1012000E0002028B12068406C01
:1025100040F40040216848642068806800F00705A6
:10252000062D05D02068006840F001002168086091
:10253000002070BD0000014000040140704770475A
:10254000704700002DE9F0470446206805682068C0
:10255000C668206847694FF00008C14605F00F08BB
:10256000B8F1000F0AD105F0200038B106F02000C4
:1025700020B1204601F0BBF8BDE8F087B8F1000FAC
:1025800072D007F0010018B906F4907000286BD0E3
:1025900005F0010030B106F4807018B1E06B40F036
:1025A0000100E06305F0040030B107F0010018B14C
:1025B000E06B40F00200E06305F0020030B107F08C
:1025C000010018B1E06B40F00400E06305F0080082
:1025D00048B106F0200010B907F0010018B1E06B17
:1025E00040F00800E063E06B70B305F0200028B114
:1025F00006F0200010B1204601F079F8206840690B
:10260000C0F38019E06B00F0080010B9B9F1000FB9
:1026100023D0204601F04BF82068406900F04000CC
:10262000402816D12068406920F0400021684861A8
:10263000606B50B11748616B0865606BFEF758FC22
:1026400010B1606B016D88470CE02046FFF778FF02
:1026500008E02046FFF774FF04E02046FFF770FF14
:102660000020E06388E7FFE705F0800030B106F066
:10267000800018B1204601F081FA7DE705F04000A6
:1026800030B106F0400018B1204601F020F873E7A1
:1026900000BF71E79B36000810B504460CB9012055
:1026A00010BDA06900B100E000BF94F8390028B95E
:1026B000002084F83800204600F028F8242084F810
:1026C00039002068C06820F400502168C8602046A6
:1026D00001F060F82068006920F4904021680861EA
:1026E0002068406920F02A00216848612068C0689D
:1026F00040F400502168C8600020E063202084F886
:10270000390084F83A000020CAE7000010B586B00E
:102710000446142101A8FDF7C1FD714920688842D3
:1027200031D100BF002000906E48006840F40020C6
:102730006C4908600846006800F40020009000BF63
:1027400000BF00BF0020009066481038006840F0CD
:1027500004006449103908600846006800F004006D
:10276000009000BF00BF4FF4406001900220029033
:1027700001200390032004900820059001A95A48E5
:10278000FEF7DEFBA9E05949206888423BD100BF33
:10279000002000905348001D006840F0100051498F
:1027A000091D08600846006800F01000009000BF96
:1027B00000BF00BF002000904A481038006840F079
:1027C00001004849103908600846006800F001001F
:1027D000009000BF00BF4FF4C06001900220029043
:1027E00001200390032004900720059001A9404890
:1027F000FEF7A6FB002211462520FEF731FD25201D
:10280000FEF71EFD69E03B492068884230D100BFD9
:10281000002000903348006840F4003031490860DF
:102820000846006800F40030009000BF00BF00BF01
:10283000002000902B481038006840F00100294922
:10284000103908600846006800F00100009000BFE1
:1028500000BF0C2001900220029001200390032071
:1028600004900720059001A92148FEF769FB34E098
:1028700021492068884230D100BF002000901948CB
:10288000006840F48020174908600846006800F49A
:102890008020009000BF00BF00BF002000901148C2
:1028A0001038006840F008000E49103908600846EA
:1028B000006800F00800009000BF00BF4FF44070B7
:1028C0000190022002900120039003200490072031
:1028D000059001A90948FEF733FB06B010BD0000C2
:1028E000004C004040380240000802400010014007
:1028F000000002400044004000480040000C02403C
:1029000010B5034693F83A0020282FD101B10AB937
:10291000012010BD00BF93F83800012801D102202A
:10292000F7E7012083F8380000BF99629A85DA85BD
:102930000020D863222083F83A0000BF002083F8EB
:10294000380000BF1868C06840F480701C68E06000
:102950001868406940F001001C6860611868C06830
:1029600040F020001C68E0600020D2E70220D0E7A1
:102970007047704700BFFEE700B587B0142102A87A
:10298000FDF78CFC00BF002001904648006840F035
:102990001000444908600846006800F010000190EB
:1029A00000BF00BF00BF002001900846006840F053
:1029B000040008600846006800F00400019000BFB1
:1029C00000BF00BF002001900846006840F0800072
:1029D00008600846006800F08000019000BF00BF5A
:1029E00000BF002001900846006840F00100086028
:1029F0000846006800F00100019000BF00BF00BF62
:102A0000002001900846006840F002000860084677
:102A1000006800F00200019000BF00BF00BF00206E
:102A200001900846006840F0080008600846006809
:102A300000F00800019000BF00BF00222A211A48C0
:102A4000FEF77EFB002242F230011848FEF778FBC9
:102A5000002203211648FEF773FB2A200290012072
:102A6000039000200490059002A90F48FEF768FA31
:102A700042F2300002900120039000200490059063
:102A800002A90A48FEF75CFA032002900120039095
:102A900000200490059002A90548FEF751FA07B0FE
:102AA00000BD000030380240001002400008024023
:102AB0000004024010B50E480E4908604FF48270C1
:102AC000486000210B488160C160016141614FF4A1
:102AD000007181610021C1610162416281620A214C
:102AE000C162FEF793FF08B1FEF701FA10BD0000C6
:102AF000003001409000002000B595B000201190FA
:102B00001290139014900F9010901C2108A8FDF7BC
:102B1000C5FB20216846FDF7C1FB374837490860EF
:102B20004720486000213548816040F2F311C160C0
:102B30000021016141618161FFF7C0F808B1FEF732
:102B4000D6F94FF48050119011A92C48FFF73AF9AB
:102B500008B1FEF7CCF92948FFF7A7FC08B1FEF74A
:102B6000C6F900200F9010900FA92448FFF74CF8E9
:102B700008B1FEF7BCF960200890002009900A9087
:102B80000B900C900D900E90002208A91B48FFF7A7
:102B900008FC08B1FEF7ABF9042208A91748FFF7B3
:102BA00000FC08B1FEF7A3F9082208A91348FFF7B3
:102BB000F8FB08B1FEF79BF90C2208A90F48FFF7B4
:102BC000F0FB08B1FEF793F900200090019002900D
:102BD000039004904FF40050059000200790694640
:102BE0000648FEF7D7FF08B1FEF781F90348FFF763
:102BF000A5FB15B000BD000000000140E80000206A
:102C000000B587B0002003900490059006900190D5
:102C100002904FF080401249086000204860002177
:102C20000F488160C16001618161FFF747F808B119
:102C3000FEF75DF94FF48050039003A90848FFF7B1
:102C4000C1F808B1FEF753F900200190029001A9E4
:102C50000348FEF7D9FF08B1FEF749F907B000BDF8
:102C60002801002000B58BB0242102A8FDF716FB37
:102C7000002000900190194819490860032048601D
:102C80000021174881604FF6FF71C160002101618A
:102C90008161032002900020039001200490002015
:102CA00005900A200690002007900120089000203F
:102CB00009900A200A9002A90948FFF707F908B10C
:102CC000FEF715F900200090019069460448FEF7D0
:102CD0009BFF08B1FEF70BF90BB000BD00040040EC
:102CE0006801002000B58BB0242102A8FDF7D6FAB8
:102CF000002000900190194819490860032048609D
:102D00000021174881604FF6FF71C1600021016109
:102D10008161032002900020039001200490002094
:102D200005900A20069000200790012008900020BE
:102D300009900A200A9002A90948FFF7C7F808B1CC
:102D4000FEF7D5F800200090019069460448FEF790
:102D50005BFF08B1FEF7CBF80BB000BD00080040E8
:102D6000A801002000B58BB0242102A8FDF796FA37
:102D7000002000900190194819490860032048601C
:102D80000021174881604FF6FF71C1600021016189
:102D90008161032002900020039001200490002014
:102DA00005900A200690002007900120089000203E
:102DB00009900A200A9002A90948FFF787F808B18C
:102DC000FEF795F800200090019069460448FEF750
:102DD0001BFF08B1FEF78BF80BB000BD000C0040E4
:102DE000E80100201CB50020009001900C480D491E
:102DF00008604015486000210A488160C160816117
:102E0000FEF75CFF08B1FEF772F800200090019019
:102E100069460448FEF7F8FE08B1FEF768F81CBDE5
:102E200000100040280200201CB5002000900190F6
:102E30000C480D4908600015486000210A4881606F
:102E4000C1608161FEF73AFF08B1FEF750F800203B
:102E50000090019069460448FEF7D6FE08B1FEF7DF
:102E600046F81CBD001400406802002000B58BB07D
:102E7000242102A8FDF712FA0020009001901A48C0
:102E80001A490860032048600021184881604FF605
:102E9000FF71C160002101614161816103200290E5
:102EA0000020039001200490002005900A20069045
:102EB0000020079001200890002009900A200A9025
:102EC00002A90A48FFF702F808B1FEF710F800203F
:102ED0000090019069460548FEF796FE08B1FEF79E
:102EE00006F80BB000BD000000040140A80200205D
:102EF00010B50B480B4908604FF4E13048600021E1
:102F000008488160C16001610C214161002181613B
:102F1000C161FFF7C1FB08B1FDF7E9FF10BD00007B
:102F2000004C0040E802002010B50B480B49086037
:102F30004FF4E1304860002108488160C1600161C0
:102F40000C21416100218161C161FFF7A5FB08B13E
:102F5000FDF7CDFF10BD0000001001402803002048
:102F600010B50B480B4908604FF4E1304860002170
:102F700008488160C16001610C21416100218161CB
:102F8000C161FFF789FB08B1FDF7B1FF10BD00007B
:102F9000004400406803002010B50B480B4908604E
:102FA0004FF4E1304860002108488160C160016150
:102FB0000C21416100218161C161FFF76DFB08B106
:102FC000FDF795FF10BD000000480040A803002059
:102FD00000BFFEE770477047704710B5FEF7BCF8BA
:102FE00010BD000000B593B0302107A8FDF756F9D9
:102FF000142102A8FDF752F900BF002001902348D8
:10300000006840F08050214908600846006800F0E0
:103010008050019000BF00BF00BF002001901C48FD
:10302000006840F480401A4908600846006800F4CF
:103030008040019000BF00BF01200790000408906D
:1030400002200D9041050E9119210F9190211091B0
:10305000022111910421129107A8FEF793FA08B1F9
:10306000FDF745FF0F2002900220039000200490FE
:103070004FF48050059000200690022102A8FEF730
:1030800041F908B1FDF733FF13B000BD40380240ED
:10309000007000401448006840F470001249086055
:1030A0001248006840F001001049086000200F49F4
:1030B000083108600D4800680D4908400B49086058
:1030C0000C48091D0860081F006820F48020091FB3
:1030D0000860002005490C3108604FF0006002498B
:1030E000803908607047000088ED00E00038024039
:1030F000FFFFF6FE1030002410B50248FFF752F82B
:1031000010BD00006802002000B58BB05848006870
:1031100040B90420F1EE040AB2EE080A02F068FA9F
:103120005349086003A95348006802F09DF807A9B5
:103130005048006802F0A3F84F4B03AA07A94C4877
:10314000006802F041F8002020E04B4901EB8001CB
:1031500091ED000AB5EEC00AF1EE10FA01DD012191
:1031600000E0002101AA115401A9095C61B942499A
:1031700001EB800191ED000AB1EE400A3E4901EBFE
:10318000800181ED000A00E000BF401C0428DCDB68
:103190009DF8042020213948FDF7D2FF9DF8040056
:1031A00008B9012000E0002002464FF400513448E5
:1031B000FDF7C6FF9DF8050008B9012000E00020DA
:1031C000024608212D48FDF7BBFF9DF8052002218E
:1031D0002A48FDF7B5FF9DF8062001212948FDF793
:1031E000AFFF9DF8060008B9012000E0002002466C
:1031F00002212448FDF7A4FF9DF8070008B901202B
:1032000000E00020024620211D48FDF799FF9DF8AF
:10321000072010211A48FDF793FF174890ED000A88
:10322000BCEEC00A10EE100A17490968486312483C
:1032300090ED010ABCEEC00A10EE100A12490968AE
:1032400008640D4890ED020ABCEEC00A10EE100AA8
:103250000D4909688863084890ED030ABCEEC00A6E
:1032600010EE100A08490968C8630BB000BD0000E1
:103270000400002000000020800000200010024018
:103280000008024000040240E8000020F0B500B948
:10329000F0BD0146304E3668766A36B272422F4E25
:1032A0003668766A33B22E4E3668766A36B2744223
:1032B0002C4E3668766A35B200EE902AF8EEE00AB7
:1032C0009FED291AC0EE811ADFED280A61EEA00AEF
:1032D00080EE801A81ED041A00EE903AF8EEE00AD2
:1032E0009FED211AC0EE811ADFED200A61EEA00ADF
:1032F00080EE801A084681ED051A00EE904AB8EE7D
:10330000E01ADFED191AC1EE210A9FED181A60EEDE
:10331000810A80EE801A81ED061A00EE905AF8EECE
:10332000E00ADFED111A80EEA11ADFED100A61EE5E
:10333000200A80EE801A81ED071A0026064F3F68AA
:103340007E62064F3F687E62054F3F687E62054F92
:103350003F687E6200BF9BE7E80100206801002013
:10336000A8010020A80200200000C343DB0FC940D1
:1033700010B50268294B98420ED0B0F1804F0BD0A7
:10338000274B984208D0274B984205D0264B9842AD
:1033900002D0264B984203D122F070024B681A43A8
:1033A0001E4B984220D0B0F1804F1DD01C4B98424C
:1033B0001AD01C4B984217D01B4B984214D01B4B71
:1033C000984211D01A4B98420ED01A4B98420BD00B
:1033D000194B984208D0194B984205D0184B984287
:1033E00002D0184B984203D122F44072CB681A43A2
:1033F00022F080034C6943EA040202608B68C362D6
:103400000B688362054B984202D0084B984201D169
:103410000B6903630123436110BD000000000140FC
:103420000004004000080040000C0040000401407F
:1034300000400140004401400048014000180040A5
:10344000001C00400020004030B501F01F050124A1
:1034500004FA05F3046A9C430462046A01F01F0540
:1034600002FA05F52C43046230BD30B50C46816884
:1034700021F47F4142EA032525432943816030BD81
:103480000A46816821F0700142F007031943816008
:103490007047000030B5056A25F001050562026A33
:1034A0004368846924F0700424F003040D682C43FD
:1034B00022F002028D682A43104DA84200D103E099
:1034C0000F4DA84206D100BF22F00802CD682A4362
:1034D00022F00402094DA84202D0094DA84207D1AA
:1034E00023F4807323F400734D692B438D692B43C0
:1034F000436084614D684563026230BD0000014055
:103500000004014030B5056A25F010050562026A25
:103510004368846924F4E04424F440740D6844EA68
:10352000052422F020028D6842EA0512124DA842BD
:1035300000D103E0114DA84207D100BF22F0800264
:10354000CD6842EA051222F040020B4DA84202D09B
:103550000A4DA84209D123F4806323F400634D6926
:1035600043EA85038D6943EA8503436084614D68BE
:103570008563026230BD000000000140000401408C
:1035800030B5056A25F480750562026A4368C4692E
:1035900024F0700424F003040D682C4322F400721C
:1035A0008D6842EA0522124DA84200D103E0114D78
:1035B000A84207D100BF22F40062CD6842EA05228A
:1035C00022F480620A4DA84202D00A4DA84209D1D5
:1035D00023F4805323F400534D6943EA05138D69A6
:1035E00043EA05134360C4614D68C563026230BDA0
:1035F000000001400004014030B5056A25F4805503
:103600000562036A4468C26922F4E04222F440720F
:103610000D6842EA052223F400538D6843EA05331E
:10362000084DA84202D0084DA84204D124F4804499
:103630004D6944EA85144460C2614D6805640362C3
:1036400030BD0000000001400004014030B50B46D1
:103650001446026A056A25F001050562816921F0B8
:10366000F00141EA041122F00A021A438161026268
:1036700030BD30B50B461446056A25F010050562CD
:103680008169026A21F4704141EA043122F0A0020A
:1036900042EA03128161026230BD70B50546AC6B2F
:1036A0000020E085E0842046FEF74AFF70BD0168F7
:1036B000C96821F490710268D1600168496921F0FC
:1036C000010102685161202180F83A10704710B55D
:1036D00004462068C06820F040002168C8602020AF
:1036E00084F839002046FFF744F9002010BD70B57A
:1036F000044694F83A0022284AD1A068B0F5805FC9
:1037000013D1A56A206940B920684068C0F3080059
:103710002880A06A801CA06219E020684068C0B2BE
:103720002880A06A401CA06211E0206938B9206896
:103730004068C1B2A26A501CA062117007E0206804
:10374000406800F07F01A26A501CA0621170E08DF9
:10375000401E80B2E085C8B92068C06820F0200013
:103760002168C8602068C06820F480702168C86043
:103770002068406920F0010021684861202084F819
:103780003A002046FFF7F4F8002070BD0020FCE767
:103790000220FAE72DE9F84F04462068006920F47A
:1037A0004050E1680843216808612169A068084326
:1037B00061690843E169084300902068C06849F2E4
:1037C0000C618843009908432168C86020684069FB
:1037D00020F44070A169084321684861E069B0F5B0
:1037E000004F75D1E3492068884203D0E249206840
:1037F00088426FD1FDF75EFE814602206168A0FB22
:1038000001510B461920A9FB00712A463846FCF7E6
:10381000EDFC6421B0FBF1F04FEA001A0220616870
:10382000A0FB01510B461920A9FB00712A4638461E
:10383000FCF7DCFC074602206168A0FB01510B4647
:103840001920A9FB00B12A465846FCF7CFFC642199
:10385000B0FBF1F000EBC00101EB0010A7EB800022
:10386000322101EBC0006421B0FBF1F000F0F80060
:103870000AEB400A02206168A0FB01510B461920A7
:10388000A9FB00712A463846FCF7B0FC0746022027
:103890006168A0FB01510B461920A9FB00B12A4623
:1038A0005846FCF7A3FC6421B0FBF1F000EBC0012B
:1038B00001EB0010A7EB8000322101EBC000642176
:1038C000B0FBF1F000F007005044216888604FE140
:1038D0006EE0FFE7FDF7DEFD814602206168A0FB98
:1038E00001510B461920A9FB00712A463846FCF706
:1038F0007DFC6421B0FBF1F04FEA001A0220616800
:10390000A0FB01510B461920A9FB00712A4638463D
:10391000FCF76CFC074602206168A0FB01510B46D6
:103920001920A9FB00B12A465846FCF75FFC642128
:10393000B0FBF1F000EBC00101EB0010A7EB800041
:10394000322101EBC0006421B0FBF1F000F0F8007F
:103950000AEB400A02206168A0FB01510B461920C6
:10396000A9FB00712A463846FCF740FC07460220B6
:103970006168A0FB015003461920A9FB00B12A464B
:103980005846FCF733FC6421B0FBF1F000EBC001BA
:1039900001EB0010A7EB8000322101EBC000642195
:1039A000B0FBF1F000F00700504421688860DFE0D0
:1039B00070492068884203D06F49206888426BD1E3
:1039C000FDF778FD814604206168A0FB01510B469C
:1039D0001920A9FB00712A463846FCF707FC8246ED
:1039E00004206168A0FB01510B461920A9FB00715E
:1039F0002A463846FCF7FAFB6421B0FBF1F000EBF5
:103A0000C00101EB0010AAEB8000322101EB001095
:103A10006421B0FBF1F000F0F00A04206168A0FB23
:103A2000015003461920A9FB00712A463846FCF7CD
:103A3000DDFB6421B0FBF1F00AEB001A04206168A1
:103A4000A0FB01510B461920A9FB00712A463846FC
:103A5000FCF7CCFB074604206168A0FB015003463D
:103A60001920A9FB00B12A465846FCF7BFFB642188
:103A7000B0FBF1F000EBC00101EB0010A7EB800000
:103A8000322101EB00106421B0FBF1F000F00F00D7
:103A90005044216888606BE0FDF7FCFC81460420FF
:103AA0006168A0FB015003461920A9FB00712A465A
:103AB0003846FCF79BFB824604206168A0FB01505E
:103AC00003461920A9FB00712A463846FCF78EFBF5
:103AD0006421B0FBF1F000EBC00101EB0010AAEB98
:103AE0008000322101EB00106421B0FBF1F000F006
:103AF000F00A04206168A0FB015003461920A9FBCD
:103B000000712A463846FCF771FB6421B0FBF1F0E6
:103B10000AEB001A04206168A0FB0170034619201B
:103B2000A9FB005001463A462846FCF75FFB0746D2
:103B300004206168A0FB015003461920A9FB00B1D5
:103B40002A465846FCF752FB6421B0FBF1F000EB2B
:103B5000C00101EB0010A7EB8000322101EB001047
:103B60006421B0FBF1F000F00F0050442168886040
:103B7000BDE8F88F0010014000140140014691F8A3
:103B8000390021282CD18868B0F5805F0FD10A6AEE
:103B90001088C0F308000B685860086918B9086AF3
:103BA000801C086209E0086A401C086205E00B6A94
:103BB000581C086218780B685860C88C401E80B288
:103BC000C88458B90868C06820F080000B68D860C5
:103BD0000868C06840F040000B68D860002070475B
:103BE0000220FCE710B51648FEF7ACFC154800783B
:103BF00078B114480178144802680068401C124BE0
:103C000018601248815401220E490D48FEF778FED3
:103C100010BD00200D490C4A1268885480210B48C1
:103C200002F03AFD80210948FCF738FB01220549E2
:103C30000348FEF765FE00200349086000BFE7E780
:103C400028030020180000201C000020E8030020AA
:103C500000BFFEE70FB41CB50246002007AC0029E8
:103C60000BD0491ECDE90021054B6A462146069836
:103C700000F036FE009A002111701CBC5DF814FBA8
:103C80000F5000087CB5044600201D46164600294A
:103C90000BD0491ECDE90041044B6A462946304607
:103CA00000F01EFE009A002111707CBD0F5000082C
:103CB00030B47446641E2578641CAB4200D21D46A5
:103CC000635D5B00E31830BC184703B40198410002
:103CD000009850EAC12018BF04204A0D18BF40F0D8
:103CE000010040F2FF72B2EB515F08BF40F00200EA
:103CF000012808BF052002B0704701224900520583
:103D0000D14201D1002801D0002070470120704726
:103D1000002800D001200143480002494008081A49
:103D2000C00F70470000F07F02480068C0F3022017
:103D3000704700000CED00E010B5002804DB0A0716
:103D4000130E054A135406E00A07140E034A00F046
:103D50000F031B1FD45410BD00E400E018ED00E079
:103D6000004870475400002010B52F499FED2C1BD0
:103D70002DED020B84B0059820F000408842D8BF9A
:103D80009DED040B2DDD2949884209D1049840B9E5
:103D90004FF0010000F0D4FC00F0A2FC06B010BD12
:103DA00005DB9DED040B00F08FFC06B010BD6846EE
:103DB0009DED040B00F0A0F810F0030004BF9DED92
:103DC000021B9DED000B0CD001280ED09DED021BB7
:103DD0009DED000B022817D0012000F0DDFB06B09E
:103DE00010BD00F0A5FA06B010BD9DED021B9DEDC3
:103DF000000B012000F0D0FB51EC100B81F00041D2
:103E000006B041EC100B10BD00F092FA51EC100B13
:103E100081F0004106B041EC100B10BD0000000025
:103E20000000000000000000FB21E93F0000F07FDF
:103E300010B52F499FED2C1B2DED020B84B005987A
:103E400020F000408842DCBF00209DED040B32DDF5
:103E50002849884209D1049840B94FF0010000F088
:103E60006FFC00F03DFC06B010BD05DB9DED040BC2
:103E700000F02AFC06B010BD68469DED040B00F072
:103E80003BF810F0030011D0012818D09DED021B63
:103E90009DED000B02281AD000F04AFA51EC100BED
:103EA00081F0004106B041EC100B10BD9DED021BEE
:103EB0009DED000B012000F06FFB06B010BD9DEDE5
:103EC000021B9DED000B00F033FA06B010BD01207F
:103ED00000F062FB51EC100B81F0004106B041ECA8
:103EE000100B10BD000000000000000000000000EA
:103EF000FB21E93F0000F07F2DE9F14F04462DED55
:103F0000020B2DED088B8AB09FEDE70B80ED020BC5
:103F1000139EE74826F0004585420ADC9DED120B12
:103F2000002084ED000B0AB0BDEC088B03B0BDE8A7
:103F3000F08FE0489FEDE0AB9FEDE1BBA84247DD8D
:103F4000E14F9FEDE39B9FEDE48B9DED120B53EC56
:103F50001A2B51EC100B002E1CDDFCF7E8FC41EC99
:103F6000100BBD4208D053EC1B2B51EC100BFCF78F
:103F7000DEFCC4E900010BE053EC192B51EC100BF3
:103F8000FCF7D5FC53EC182BFCF7D1FCC4E900017D
:103F90000120C8E7FCF72AFC41EC100BBD4208D019
:103FA00053EC1B2B51EC100BFCF720FCC4E9000177
:103FB0000BE053EC192B51EC100BFCF717FC53ECF6
:103FC000182BFCF713FCC4E900014FF0FF30AAE7FF
:103FD000C348A84279DB9DED120B51EC100B01F0A8
:103FE000BFF841EC180B9FEDC00B53EC102BFCF706
:103FF0008AF99FEDBF1B53EC112BFCF7F7FBFCF785
:104000003AFF0746FCF719FF41EC190B53EC1A2B4A
:10401000FCF779F953EC182BFCF78CFC41EC180BEE
:1040200053EC1B2B51EC190BFCF76DF9DFF8C8A210
:1040300041EC100B4FEA15580125FA4453EC102BB4
:1040400051EC180BFCF773FC032DC4E900013DD0C3
:10405000C1F30A5005EB4511A8EB0000113981426C
:1040600034DA0AEB051BB0EE48AA9BED000BF0EE2C
:1040700068AA53EC102B51EC190BFCF744F941ECF6
:104080001B0B51EC1A0B53EC1B2BFCF750FC41ECB7
:10409000180B51EC1A0B53EC182BFCF748FC53ECA3
:1040A0001B2BFCF744FC9BED020B41EC1A0B53EC71
:1040B000102B51EC190BFCF726F953EC1A2BFCF7DB
:1040C00036FC41EC100B6D1CB8E70EE0002EA8BFCB
:1040D0003846BFF628AF94ED000B51EC100B81F081
:1040E0000041C4E9000178421DE7C6F3130040F423
:1040F000801EC6F30A50A0F2F530471100F01F05EC
:10410000C5F12000DDF848B0089000200690079027
:104110000520EC467949002D07EB0002794408BFE1
:1041200051F8221009D051F8223001EB8201AB4046
:104130004A68089922FA01F11943A1FB0E26A1FB56
:104140000B131A449A4234BF0123002303EB0608E1
:104150000CEB8003D3E901A60E448E4234BF01214B
:10416000002192448A4411B1924502D903E092455C
:1041700001D2012100E00021C3E901A641444CF82D
:104180002010011EA0F10100C4DC029800F10050D3
:10419000850F0298DDE903678000DDF81480FCF7E5
:1041A0004CFE41EC1A0B3046FCF758FE9FED541BB9
:1041B00053EC112BFCF7A7F841EC1B0B3846FCF72E
:1041C0004DFE9FED511B53EC112BFCF79CF841EC7D
:1041D000180B4046FCF742FE9FED4D1B53EC112B94
:1041E000FCF791F841EC190B51EC180B53EC192B1F
:1041F000FCF7FCFA53EC1B2BFCF7F8FA53EC1A2BE8
:10420000FCF7F4FACDE90801002008909DED080BB9
:1042100053EC1A2B51EC100BFCF789FB53EC1B2BC6
:10422000FCF785FB53EC182BFCF781FB53EC192BA7
:10423000FCF780FB9FED381B53EC112BFCF763F868
:104240009FED370B41EC180B53EC102B9DED080B39
:1042500051EC100BFCF757F853EC182BFCF7C6FA8F
:104260009FED310B41EC180B53EC102B9DED080B1F
:1042700051EC100BFCF747F853EC182BFCF7B6FA8F
:1042800041EC100B139810F0004F06D06D4251EC2A
:10429000100B81F0004141EC100B284684ED000B1F
:1042A00041E60000000000000000000000000000E7
:1042B000FB21E93F7CD9024000004054FB21F93F3B
:1042C0003163621A61B4D03DFB21F93F0000000068
:1042D0000000601A61B4D03D7370032E8A19A33BAD
:1042E000FB2139410000000083C8C96D305FE43F05
:1042F000000000000000E03F122D0000602C0000D4
:10430000000000000000103E000000000000103C13
:10431000000000000000103A182D4454FB21F93D24
:104320003326A611460B113C00000054FB21F93D39
:1043300010B52DED040B2DED088B82B0B0EE419A37
:10434000F0EE619A0B9820F000449FED4BABB4F176
:10435000795F11DA9DED0A0B51EC100BFCF78BFD28
:10436000002801BFB0EE4A0AF0EE6A0A02B0BDECC6
:10437000088B04BF04B010BD9DED0A0B53EC102B4D
:1043800051EC100BFBF7BFFF41EC180B3C4806212A
:10439000B0EE480AF0EE680A784400F081F853EC79
:1043A000182B51EC100BFBF7AEFF9DED0A0B41EC07
:1043B0001B0B53EC192B51EC100BFBF7A4FF41EC3A
:1043C000190B53EC1B2B51EC180BFBF79CFF53EC18
:1043D000192BFCF7ACFA9FED2C0B41EC190B53ECAD
:1043E000102B51EC180BFBF78EFF41EC100B2848FB
:1043F000844210DA53EC192B51EC100BFCF797FAAE
:1044000053EC1A2BFCF796FA41EC100B02B0BDEC02
:10441000088B04B010BD1F48A042BCBF9FED1E1BFF
:104420008DED001B06DBA4F500100190002000902C
:104430009DED001B51EC100B53EC112BFCF777FAA0
:104440009DED000B41EC180B53EC102B51EC1A0BAB
:10445000FCF76DFA41EC1A0B53EC192B51EC180BCD
:10446000FCF765FA53EC1A2BFCF764FA41EC100BDD
:10447000CCE7000000000000000000000000F03F5A
:104480008429000000000000000000000000E03F60
:104490003333D33F0000E93F000000000000D23F6B
:1044A00070B504462DED028B4D1E00EBC500B0EE3D
:1044B000408AF0EE608A90ED000B35F0060017D0D0
:1044C00053EC182B51EC100BFBF71DFF41EC100BBC
:1044D0006D1E04EBC50090ED001B51EC100B53EC6E
:1044E000112BFCF783F941EC100B35F00600E7D1F6
:1044F000022D36D0042D1CD0062D1CBFBDEC028B26
:1045000070BD53EC182B51EC100BFBF7FCFE94ED37
:104510000A1B53EC112BFCF769F953EC182BFBF732
:10452000F2FE94ED081B53EC112BFCF75FF941EC04
:10453000100B53EC182B51EC100BFBF7E4FE94ED31
:10454000061B53EC112BFCF751F953EC182BFBF71E
:10455000DAFE94ED040B53EC102BFCF747F941EC19
:10456000100B53EC182B51EC100BFBF7CCFE94ED19
:10457000021B53EC112BFCF739F953EC182BFBF70A
:10458000C2FE94ED001B53EC112BFCF72FF9BDEC90
:10459000028B41EC100B70BD31B504462DED040BC0
:1045A0002DED0A8BB0EE41BAF0EE61BA0B989DED9D
:1045B0000A0B20F00040B0F1795F0DDA51EC100BDE
:1045C000FFF783FB042808BF00F09AF89DED0A0B63
:1045D000BDEC0A8B05B030BD53EC102B51EC100B29
:1045E000FBF791FE41EC180B9DED0A0B53EC182BD9
:1045F00051EC100BFBF787FE41EC190B2C48B0EE89
:10460000480AF0EE680A05217844FFF749FF9FED5C
:104610002ACBB0EE40AAF0EE60AA9CB353EC1C2B60
:1046200051EC190BFBF76FFE41EC1C0B53EC1A2BF2
:1046300051EC190BFBF767FE9FED210B41EC190BB9
:1046400053EC102B51EC1B0BFBF75DFE53EC192BBD
:10465000FCF76DF953EC182BFBF755FE53EC1B2BB5
:10466000FCF765F953EC1C2BFCF761F99DED0A1B77
:1046700053EC112BFCF75EF9BDEC0A8B05B041EC55
:10468000100B30BDFFE753EC1A2B51EC180BFBF766
:104690003AFE53EC1C2BFCF7A9F853EC192BFBF753
:1046A00032FE9DED0A1B53EC112BFCF79FF8E3E75C
:1046B0000C28000000000000495555555555C5BF50
:1046C000000000000000E03F10B553EC102B51EC4F
:1046D000100BFCF78BF841EC100B10BD0000000034
:1046E0009FED050B10B553EC102B51EC100BFBF7A5
:1046F0007CFE41EC100B10BD00000000000000002B
:104700009FED050B10B553EC102B51EC100BFBF784
:10471000FAFD41EC100B10BD00000000000000107D
:1047200002E008C8121F08C1002AFAD1704770477A
:10473000002001E001C1121F002AFBD170470000D8
:104740000149086070470000540000202DE9FF5F18
:1047500082B00021DDE90430020DDDF840B00343F2
:1047600018D044F61050A2F2FF32424315141198AB
:1047700001281FD0A5EB0B00401C5FEA000A4FF098
:1047800000064E4FDFF83891B046504615D5CAF1B5
:10479000000413E0119801244AA3012801D16FEA13
:1047A0000B010298119AC0E90031C0E9024206B03B
:1047B000BDE8F09FCBF10000DFE704460021404A4E
:1047C000491842EB0450CDE9001012E0E00707D091
:1047D00032463B4640464946FBF795FD80468946B2
:1047E00032463B4610461946FBF78DFD06460F46FE
:1047F0006410002CEAD1DDE90401DDE90023BAF1FF
:10480000000F06DAFBF77FFD42464B46FBF77BFDC8
:1048100005E0FBF7EAFD42464B46FBF7E6FD0446A2
:104820000E460022284BFCF7A1F803D84FF0FF30CA
:10483000014607E00022254B20463146FBF7D6FF14
:10484000FCF77BF8102409E0002C0ADB0A22002385
:10485000FBF7CCFC039B30321A55641E50EA010270
:10486000F2D1641C039AC4F111031444119A012A71
:1048700003D0012208430DD10AE0084304D00020F0
:104880004FF0110B119072E7A3EB0B056D1E0DE0BD
:104890005B4504DD4FF0000205F1010504E003DA99
:1048A0004FF00002A5F10105002AECD00298119901
:1048B000C0E90231C0E9004579E70000000014407A
:1048C0000000F03F300000000000F0430000E03F37
:1048D00030380A2801D201207047002070470000BC
:1048E0002DE9FF4F95B09B468946064600250FE20D
:1048F000252877D100242746F84A0121059400E0B5
:10490000044316F8013F203B01FA03F01042F7D1AF
:1049100030782A2811D06FF02F033078A0F13002C0
:10492000092A16D8059A44F0020402EB820203EB2E
:1049300042021044761C0590EFE759F8042B0592CB
:10494000002A03DA504244F40054059044F0020473
:10495000761C30782E2816D116F8010F44F0040486
:104960002A280DD06FF02F023078A0F13003092BE8
:1049700009D807EB870302EB4303C718761CF3E75C
:1049800059F8047B761C30786C280FD006DC4C2854
:1049900017D068280DD06A2814D104E0742810D0EC
:1049A0007A280FD10DE044F400140AE044F4801496
:1049B00001E044F440147278824202D104F580147C
:1049C000761C761C307866280BD013DC582877D0FC
:1049D00009DC002875D04528F6D04628F4D04728B1
:1049E0001AD19DE118E0632835D0642879D0652874
:1049F00012D195E1702873D008DC6728F1D06928BE
:104A00006FD06E280DD06F2806D1B5E073282CD05A
:104A1000752875D0782874D05A46179990476D1C20
:104A200075E1C4F30250022809D003280DD0D9F84B
:104A3000001004280DD00D6009F1040967E1D9F8D0
:104A40000010EA17C1E90052F6E7D9F800100D800E
:104A5000F2E70D70F0E719F8041B8DF80010002044
:104A60008DF80100EA46012003E059F804AB4FF04D
:104A7000FF3061074FF0000102D40DE008F10101A1
:104A80008846B9420FDA8045F8DB1AF80810002989
:104A9000F4D108E008F1010188468142FADB1AF8F6
:104AA00008100029F6D105985B46A0EB08072146BF
:104AB0003846179A00F094FA284400EB080507E0FE
:104AC0004DE029E10DE01AF8010B5A46179990477D
:104AD000B8F10108F7D25B4621463846179A13E130
:104AE00042E00A220092C4F302524FF0000A022A66
:104AF00008D059F804CB032A4FEAEC710AD00DE034
:104B000029E02AE009F1070121F00702F2E802C1D9
:104B1000914609E00FFA8CFC4FEAEC71042A03D1AC
:104B20004FFA8CFC4FEAEC71002907DA0A460021A3
:104B3000DCF1000C61EB02012D2202E0220504D51C
:104B40002B228DF80420012203E0E20701D020226D
:104B5000F7E7904659E00A2102E010220DE010210B
:104B60004FF0000A00910BE010224FF0000A44F0D1
:104B700004040827009203E008224FF0000A009284
:104B8000C4F30252022A05D059F804CB0021032AAB
:104B900008D009E009F1070121F00702F2E802C19B
:104BA000914605E01FFA8CFC042A01D10CF0FF0CA1
:104BB0004FF00008220728D5702806D0009B83F00C
:104BC000100353EA0A0305D00EE040228DF80420BA
:104BD000012208E05CEA010206D030228DF80420B0
:104BE0008DF8050002229046009B83F0080353EAEB
:104BF0000A030AD15CEA010201D1620705D530221D
:104C00008DF804204FF001087F1E582804D034A0EE
:104C100003900EA802900DE036A0F9E753466046D7
:104C2000009AFBF7E3FA84460398825C0298401EE0
:104C3000029002705CEA0100F0D1029806A9081AFD
:104C400000F1200A600702D524F4803400E0012737
:104C5000574502DDA7EB0A0000E0002000EB0A0147
:104C6000009005984144401A0590E00306D45B4645
:104C70002146179A059800F0B3F90544002706E08D
:104C800001A85A46C05D179990476D1C7F1C474587
:104C9000F6DBE0030CD55B462146179A059800F039
:104CA0009FF9054404E030205A46179990476D1C3F
:104CB0000099481E00900029F5DC08E0029802994E
:104CC0005A460078491C0291179990476D1CBAF119
:104CD0000001AAF1010AF1DC65E1000009280100E8
:104CE0003031323334353637383961626364656662
:104CF0000000000030313233343536373839414224
:104D0000434445460000000000F058F90544761C75
:104D1000307800287FF4ECAD19B02846BDE8F08F5C
:104D2000620700D4062709F1070222F0070CFCE80D
:104D30000223E14603F000485FEA080C02D00FF2BC
:104D4000702C0DE05FEA045C02D50FF2682C07E0DE
:104D50005FEAC47C02D00FF2602C01E0AFF2700C6D
:104D60004FF0FF3823F00043CDF850C065280CD039
:104D700006DC452809D046281DD047283DD13DE016
:104D8000662818D067287ED138E00021112F01DB7A
:104D9000112000E0781CCDE9000106A90EA8FFF75C
:104DA000D5FCDDE90F010E9A03910021009207F175
:104DB000010A04914DE04FF000400097CDE9011049
:104DC00006A90EA8FFF7C2FCDDE90F0203920E9BB5
:104DD00011990022DDF80CA00093049211B9791CFE
:104DE00000EB010AB7EB0A0004D4C0F1FF3007F171
:104DF000010A0490AAEB0700019044E0012F00DAB9
:104E000001270021112F01DD112000E03846CDE9F6
:104E1000000106A90EA8FFF799FCDDE90F010E9A23
:104E20000391002104910092BA4621070CD4039902
:104E3000514500DA8A46BAF1010F05DD009AAAF160
:104E40000101515C302908D0B84202DA10F1040F98
:104E500006DA0121CDE9011015E0AAF10101E9E727
:104E6000002805DC049901440491AAEB000102E04A
:104E7000411C514500DD8A460499401A401C0190AE
:104E80004FF000400290200704D40198504501DB08
:104E9000CDF8048000208DF84F0002980DF14F07E7
:104EA000B0F1004F25D02B200E9002984FF0020851
:104EB00000280CDA404202902D200E9007E00A21D3
:104EC0000298FBF77DF93031029007F8011DB8F127
:104ED0000001A8F10108F2DC02980028EFD1791E48
:104EE0000E980870307800F0200040F0450007F878
:104EF000020D12A8C01B00F107081498007800B139
:104F0000012000EB0A01019801EBE0710598414492
:104F1000401A401E0590E00306D45B462146179ACE
:104F2000059800F05DF805441498007818B15A46C9
:104F3000179990476D1CE00324D55B462146179ACC
:104F4000059800F04DF805441CE00498002807DBA4
:104F5000DDE90301884203DD0098405C179901E018
:104F6000179930205A469047049805F10105401CD6
:104F700004900198401E019004D12E205A461799A2
:104F800090476D1CBAF10001AAF1010ADDDC05E0D1
:104F900017F8010B5A46179990476D1CB8F100019C
:104FA000A8F10108F4DC5B462146179A0598ABE6A8
:104FB0002D0000002B000000200000002DE9F04132
:104FC000044600251E461746880404D405E03946E9
:104FD0002020B0476D1C641EF9D52846BDE8F0813D
:104FE0002DE9F041044600251E469046C80301D530
:104FF000302700E02027880404D505E041463846E4
:10500000B0476D1C641EF9D52846BDE8F0814A689A
:10501000002A06D00A68531C0B6010704868401EB6
:105020004860704770B50D4604998C009900891846
:10503000AA0010182246FBF70AF970BD0A680C3066
:10504000824204D14868824201D101207047002089
:10505000704710B5034619780020752901D0AFF3C9
:1050600000800122995C00010C46303C092C02D8DA
:10507000401830380CE00C46613C192C02D840181E
:10508000573805E00C46413C192C05D840183738F4
:10509000521C042AE6DD10BD0020C04310BD0000F4
:1050A0000FB4F0B5D5B0002000255290ED435A98CA
:1050B0000C462AAE5395002838D05DABA02130466F
:1050C0005C9AFEF7DFFD002750A8C771002C24D0A2
:1050D0002046283001F0F2FBA1695391E569616A2D
:1050E000529100280DD0017800290AD0E16A1429D4
:1050F00013D800902AAB10A2A02102A8FEF7AAFDA7
:1051000008E06069801C08D02AAB0FA2A02102A889
:10511000FEF7A0FD28A8C77102AE10A0009001966E
:105120002A46529B53995A9800F04DFC55B0F0BC5A
:1051300008BC04B0184700002573206E656172201A
:1051400027257327000000002573206E65617220FB
:10515000656E64206F662066696C650025730000CB
:1051600082B0CDE9000121F0004001909DED000BDF
:1051700002B051EC100B704710B5002821D0114B34
:105180000022001F196803E0814203D80A464968DB
:105190000029F9D152B11368841A9C4204D10068E5
:1051A00018441060104602E0506000E0186039B109
:1051B00002680B1A934203D10B681A4402604968D3
:1051C000416010BD580000202DE9F0470646884692
:1051D00091461F460EB9BDE8F0873446A1688800A5
:1051E00001F000F8054600202FE008EB800191ED6A
:1051F000000A09EB8001D1ED000A30EE600A05EBF0
:10520000800181ED000AE16801EB800191ED000A67
:1052100005EB8001D1ED000A30EEC00AD4ED000AA2
:1052200020EE200AD4ED010A05EB800191ED001A71
:1052300000EE810A07EB8001D1ED000A30EE200A72
:1052400007EB800181ED000A401CA1688142CCDCA3
:10525000A1688A002946E068FAF7F9FF2846FFF7B7
:105260008BFF002500BFB6E770B500B970BD0246E0
:1052700002F1100378CB81E8780000BFF6E770B543
:1052800000B970BD024692E8780081E8780000BF5E
:10529000F7E7000070B5044688184E4A80180246A9
:1052A000154646E023785B1965782D02EB18A57842
:1052B0002D04EB18E5782D06EE1823799A186379FA
:1052C0001B029A18A3791B049A18E3791B069B18F2
:1052D000227A1018627A12021018A27A1204101898
:1052E000E27A12061518701B1C262A46F24142402B
:1052F0001046ED181B1A1A26F2415A40134640195F
:10530000ED1A1826F2416A4015461B18401B10265C
:10531000F2414240EE1810461B1A0D25EA41534057
:105320008519F21A18461C26F04150405A190C39BA
:105330000C340C29B6D80B00FEF7BAFC0D4A272412
:10534000211E1C191613110E0B082900E17A0906FB
:105350000818A17A09040818617A09020818217A44
:105360000818E17909068A18A17909048A1861796F
:1053700009028A1821798A18E17809064D19A1785D
:1053800009044D19617809024D1921784D1912232C
:105390001146D9415040411A152308464D40D84185
:1053A000281A07240346E3414240D21A1024134628
:1053B000E3415140C91A1C240B464840E341C01A3E
:1053C00042401223D841101A41400822D041081A05
:1053D00070BD0000EFBEADDE10B5044600F004F86D
:1053E000606800F02DFB10BD70B505460C350469F2
:1053F00008E06668A068241F00F0AAF9204600F0C3
:105400001FFB3446AC42F4D170BDF8B50446406889
:1054100000F016FBA1680126491C30468840A160B7
:105420000090C00000F014FB6060002803D0002052
:1054300025460C3509E00020C043F8BDC100626874
:105440000B1DD5506268401C5550227A3146914060
:105450008142F3D822696D602D600DE0171F5668F8
:1054600038680099FAF7ACFE6068C90041183A1D27
:10547000204600F0DAF83246AA42EFD10020F8BD0B
:10548000FFB581B01F460E46FFF7D8FD002813D1A7
:105490003468251F2868B84206D12846143003997D
:1054A000FAF70EFF002804D07068A04204D06468A8
:1054B000EFE7284605B0F0BD0020FBE770B50446D5
:1054C0000D460846FAF7F5FE0B490A6801462846DC
:1054D000FFF7E0FE237A01219940491E01406268EE
:1054E000C900511803462A462046FFF7C9FF002885
:1054F00000D0C06870BD00005000002070B50446A8
:10550000002020600320A060402000F0A1FA60602D
:10551000002806D020460C30206100210123E060E5
:1055200009E00020C04370BDCA006568161DA8517F
:105530006568491CA850257A1A46AA408A42F3D8C1
:10554000002070BDFFB50546027A0124016820469F
:10555000904081B01F46814204D32846FFF755FF93
:10556000002840D10298FAF7A4FE20490A680146B3
:105570000298FFF78FFE0646287A33468440641E61
:1055800034406868E1004018009001462846029ABD
:10559000FFF776FF040004D0E06800F0D9F8E76078
:1055A0001EE00298FAF785FE1521C8421BD215307D
:1055B00000F04EFA040016D02660039820612046C1
:1055C00014300299FAF794FE201DA060E760606035
:1055D000221D2846009900F028F82868401C286001
:1055E000002005B0F0BD0020C043FAE750000020C5
:1055F00070B52DED028BB0EE408AF0EE608A054664
:10560000102000F0EFFD0446C4ED018A84ED008A0D
:10561000A560A80000F0E6FDE060A900E068FAF7E8
:105620003DFE2046BDEC028B70BD70B515460C46A4
:105630000646FFF703FD002806D0304629460C3009
:1056400000F059FD656003E02946206800F053FD35
:10565000256070BD70B5182000F0FAF904000ED076
:10566000012020700025E56060600820A0602020F7
:1056700000F0EEF92061002802D02046656170BD7F
:10568000204600F0DDF9002070BD000070B5104E1E
:105690000D0005D0002817D00178012914D101E0B0
:1056A000304670BDA8420FD001220446114600F0DA
:1056B00011F8002808D0E168206989004550E068A9
:1056C000401CE060002070BD284600F035F8E7E798
:1056D000FFFFFFFFF8B50546C06817464318AA68E4
:1056E0002869934219D9064654185000844200D8BC
:1056F0000446A00000F0ACF900280ED0AC60286190
:10570000002F0BD0E9680023009132461946FFF7BD
:1057100089FC304600F094F92869F8BD3046F8BDA0
:1057200010B5002807D041684A1C04D0491E4160CA
:1057300001D100F019F810BD10B5002807D041685C
:105740004A1C04D0491E416001D100F00DF810BD83
:1057500010B5002807D041684A1C04D0491E41609A
:1057600001D100F001F810BD70B500280AD0017811
:10577000002908D001290BD002291AD0032915D0FD
:10578000042913D070BD04460830FFF725FE0CE055
:105790000446002504E0A9004058FFF7CDFF6D1C2A
:1057A000E068A8422069F6D805E0204600F048F9F4
:1057B00070BD0446806800F043F9F6E70048704782
:1057C00038000020002804D041684A1C01D0491C40
:1057D0004160704770B504460D46102000F038F95E
:1057E000002804D0032101700121021D32C270BDC6
:1057F00070B50E46044692B0154612A1104600F050
:10580000D1F8002C0CD00020119010AA104910944F
:10581000684600F099F9002808D0002012B070BD49
:105820000CA200212846FFF73BFCF6E72A4631464A
:10583000684600F057FD0446684600F05BF92046D4
:10584000ECE700003C737472696E673E0000000074
:105850002D6A000877726F6E6720617267756D65DB
:105860006E747300004870474000002010B524207B
:1058700000F0EEF8040004D00E480068002802D0C2
:1058800004E0002010BD002000F024F8002020706B
:105890000120606020460830FFF730FE002803D06A
:1058A000204600F0CDF8ECE70020E06120622046C1
:1058B00010BD00005000002010B5002904D00028C1
:1058C00002D00278002A01D0002010BD0830FFF776
:1058D000F5FD10BD38B5084C216800290AD1002813
:1058E00007D1684600F0D4FE0098002801D10120BD
:1058F0000090206038BD00005000002070B50E4DB3
:10590000140007D0002912D0002810D00278002AF5
:105910000DD101E0284670BDA04208D0C269531CD9
:10592000C36123460830FFF70DFE0028F3D0204660
:10593000FFF702FFEEE70000FFFFFFFF70B5044630
:105940000D46FEF7E5F9002805D120462946FEF769
:10595000D4F9002801D0002070BD102000F078F8A4
:105960000028F9D0042101700121021D32C270BD4E
:10597000002802D00178042902D000200146704797
:105980008268C16810467047002802D00178022959
:1059900001D00020704780687047000000487047C1
:1059A0003000002010B500280AD000225C231A54D1
:1059B000531E036043608260002902D000F00CF89F
:1059C00010BD027310BD1CB505AC0194049C00947D
:1059D00000F020F81CBD000070B504000D4616D084
:1059E000002D14D00846FAF764FC22460C325028E9
:1059F00002D22946104608E006464C3E04A1104655
:105A0000FAF776FC2046A9190F30FAF771FC70BD41
:105A10002E2E2E0070B50400059D04980FD05C2634
:105A2000365D002E0BD10EC4024620462B46A02127
:105A300050300C3CFEF726F90020E034E07670BDD3
:105A4000002802D0014949680847704748000020F3
:105A5000002802D001490968084770474800002023
:105A600010B5012200F0C3FF10BD70B506460C460C
:105A7000481CFFF7EDFF050007D022463146FAF734
:105A8000E6FB00202855284670BD002070BD0000B0
:105A9000FEB50F460646FEF763F90021019001604E
:105AA0006946306800F0D0FF04460D4603CE40182A
:105AB0000099884201D0AFF3008000220B4B2046B2
:105AC0002946FAF715FD06D00022094B2046294643
:105AD000FAF70EFD03D101980068022802D030C702
